{
  "contractName": "ControlToken",
  "abi": [
    {
      "inputs": [],
      "payable": false,
      "stateMutability": "nonpayable",
      "type": "constructor"
    },
    {
      "anonymous": false,
      "inputs": [
        {
          "indexed": true,
          "internalType": "address",
          "name": "_owner",
          "type": "address"
        },
        {
          "indexed": true,
          "internalType": "address",
          "name": "_spender",
          "type": "address"
        },
        {
          "indexed": false,
          "internalType": "uint256",
          "name": "_value",
          "type": "uint256"
        }
      ],
      "name": "Approval",
      "type": "event"
    },
    {
      "anonymous": false,
      "inputs": [
        {
          "indexed": true,
          "internalType": "address",
          "name": "_receiver",
          "type": "address"
        },
        {
          "indexed": false,
          "internalType": "uint256",
          "name": "_value",
          "type": "uint256"
        }
      ],
      "name": "Mint",
      "type": "event"
    },
    {
      "anonymous": false,
      "inputs": [
        {
          "indexed": true,
          "internalType": "address",
          "name": "_from",
          "type": "address"
        },
        {
          "indexed": true,
          "internalType": "address",
          "name": "_to",
          "type": "address"
        },
        {
          "indexed": false,
          "internalType": "uint256",
          "name": "_value",
          "type": "uint256"
        }
      ],
      "name": "Transfer",
      "type": "event"
    },
    {
      "anonymous": false,
      "inputs": [
        {
          "indexed": true,
          "internalType": "address",
          "name": "_from",
          "type": "address"
        },
        {
          "indexed": false,
          "internalType": "uint256",
          "name": "_value",
          "type": "uint256"
        },
        {
          "indexed": false,
          "internalType": "string",
          "name": "_otp",
          "type": "string"
        }
      ],
      "name": "Unlock",
      "type": "event"
    },
    {
      "constant": true,
      "inputs": [
        {
          "internalType": "address",
          "name": "",
          "type": "address"
        },
        {
          "internalType": "address",
          "name": "",
          "type": "address"
        }
      ],
      "name": "allowance",
      "outputs": [
        {
          "internalType": "uint256",
          "name": "",
          "type": "uint256"
        }
      ],
      "payable": false,
      "stateMutability": "view",
      "type": "function"
    },
    {
      "constant": true,
      "inputs": [
        {
          "internalType": "address",
          "name": "",
          "type": "address"
        }
      ],
      "name": "balanceOf",
      "outputs": [
        {
          "internalType": "uint256",
          "name": "",
          "type": "uint256"
        }
      ],
      "payable": false,
      "stateMutability": "view",
      "type": "function"
    },
    {
      "constant": true,
      "inputs": [],
      "name": "latest",
      "outputs": [
        {
          "internalType": "address",
          "name": "",
          "type": "address"
        }
      ],
      "payable": false,
      "stateMutability": "view",
      "type": "function"
    },
    {
      "constant": true,
      "inputs": [],
      "name": "name",
      "outputs": [
        {
          "internalType": "string",
          "name": "",
          "type": "string"
        }
      ],
      "payable": false,
      "stateMutability": "view",
      "type": "function"
    },
    {
      "constant": true,
      "inputs": [],
      "name": "owner",
      "outputs": [
        {
          "internalType": "address",
          "name": "",
          "type": "address"
        }
      ],
      "payable": false,
      "stateMutability": "view",
      "type": "function"
    },
    {
      "constant": true,
      "inputs": [],
      "name": "standard",
      "outputs": [
        {
          "internalType": "string",
          "name": "",
          "type": "string"
        }
      ],
      "payable": false,
      "stateMutability": "view",
      "type": "function"
    },
    {
      "constant": true,
      "inputs": [],
      "name": "symbol",
      "outputs": [
        {
          "internalType": "string",
          "name": "",
          "type": "string"
        }
      ],
      "payable": false,
      "stateMutability": "view",
      "type": "function"
    },
    {
      "constant": true,
      "inputs": [],
      "name": "today",
      "outputs": [
        {
          "internalType": "uint256",
          "name": "",
          "type": "uint256"
        }
      ],
      "payable": false,
      "stateMutability": "view",
      "type": "function"
    },
    {
      "constant": true,
      "inputs": [],
      "name": "totalSupply",
      "outputs": [
        {
          "internalType": "uint256",
          "name": "",
          "type": "uint256"
        }
      ],
      "payable": false,
      "stateMutability": "view",
      "type": "function"
    },
    {
      "constant": false,
      "inputs": [
        {
          "internalType": "address",
          "name": "_to",
          "type": "address"
        },
        {
          "internalType": "uint256",
          "name": "_value",
          "type": "uint256"
        }
      ],
      "name": "transfer",
      "outputs": [
        {
          "internalType": "bool",
          "name": "success",
          "type": "bool"
        }
      ],
      "payable": false,
      "stateMutability": "nonpayable",
      "type": "function"
    },
    {
      "constant": false,
      "inputs": [
        {
          "internalType": "address",
          "name": "_spender",
          "type": "address"
        },
        {
          "internalType": "uint256",
          "name": "_value",
          "type": "uint256"
        }
      ],
      "name": "approve",
      "outputs": [
        {
          "internalType": "bool",
          "name": "success",
          "type": "bool"
        }
      ],
      "payable": false,
      "stateMutability": "nonpayable",
      "type": "function"
    },
    {
      "constant": false,
      "inputs": [
        {
          "internalType": "address",
          "name": "_from",
          "type": "address"
        },
        {
          "internalType": "address",
          "name": "_to",
          "type": "address"
        },
        {
          "internalType": "uint256",
          "name": "_value",
          "type": "uint256"
        }
      ],
      "name": "transferFrom",
      "outputs": [
        {
          "internalType": "bool",
          "name": "success",
          "type": "bool"
        }
      ],
      "payable": false,
      "stateMutability": "nonpayable",
      "type": "function"
    },
    {
      "constant": false,
      "inputs": [
        {
          "internalType": "address",
          "name": "_newVersion",
          "type": "address"
        }
      ],
      "name": "update",
      "outputs": [],
      "payable": false,
      "stateMutability": "nonpayable",
      "type": "function"
    },
    {
      "constant": false,
      "inputs": [
        {
          "internalType": "uint256",
          "name": "_value",
          "type": "uint256"
        },
        {
          "internalType": "string",
          "name": "_otp",
          "type": "string"
        }
      ],
      "name": "buyHours",
      "outputs": [
        {
          "internalType": "bool",
          "name": "success",
          "type": "bool"
        }
      ],
      "payable": false,
      "stateMutability": "nonpayable",
      "type": "function"
    },
    {
      "constant": false,
      "inputs": [],
      "name": "getTokens",
      "outputs": [
        {
          "internalType": "bool",
          "name": "success",
          "type": "bool"
        }
      ],
      "payable": false,
      "stateMutability": "nonpayable",
      "type": "function"
    },
    {
      "constant": false,
      "inputs": [],
      "name": "reset",
      "outputs": [
        {
          "internalType": "bool",
          "name": "success",
          "type": "bool"
        }
      ],
      "payable": false,
      "stateMutability": "nonpayable",
      "type": "function"
    }
  ],
  "bytecode": "0x60806040526040518060400160405280600c81526020017f436f6e74726f6c546f6b656e0000000000000000000000000000000000000000815250600090805190602001906200005192919062000195565b506040518060400160405280600481526020017f434f4e5400000000000000000000000000000000000000000000000000000000815250600190805190602001906200009f92919062000195565b506040518060400160405280601281526020017f436f6e74726f6c20546f6b656e2076312e30000000000000000000000000000081525060029080519060200190620000ed92919062000195565b50348015620000fb57600080fd5b506000600460006101000a81548173ffffffffffffffffffffffffffffffffffffffff021916908373ffffffffffffffffffffffffffffffffffffffff16021790555033600560006101000a81548173ffffffffffffffffffffffffffffffffffffffff021916908373ffffffffffffffffffffffffffffffffffffffff1602179055506000600381905550600060068190555062000244565b828054600181600116156101000203166002900490600052602060002090601f016020900481019282601f10620001d857805160ff191683800117855562000209565b8280016001018555821562000209579182015b8281111562000208578251825591602001919060010190620001eb565b5b5090506200021891906200021c565b5090565b6200024191905b808211156200023d57600081600090555060010162000223565b5090565b90565b61159780620002546000396000f3fe608060405234801561001057600080fd5b50600436106101005760003560e01c806370a0823111610097578063aa6ca80811610066578063aa6ca8081461060b578063b74e452b1461062d578063d826f88f1461064b578063dd62ed3e1461066d57610100565b806370a08231146104805780638da5cb5b146104d857806395d89b4114610522578063a9059cbb146105a557610100565b806323b872dd116100d357806323b872dd1461025057806352bfe789146102d657806359455a9a146103205780635a3b7e42146103fd57610100565b806306fdde0314610105578063095ea7b31461018857806318160ddd146101ee5780631c1b87721461020c575b600080fd5b61010d6106e5565b6040518080602001828103825283818151815260200191508051906020019080838360005b8381101561014d578082015181840152602081019050610132565b50505050905090810190601f16801561017a5780820380516001836020036101000a031916815260200191505b509250505060405180910390f35b6101d46004803603604081101561019e57600080fd5b81019080803573ffffffffffffffffffffffffffffffffffffffff16906020019092919080359060200190929190505050610783565b604051808215151515815260200191505060405180910390f35b6101f6610875565b6040518082815260200191505060405180910390f35b61024e6004803603602081101561022257600080fd5b81019080803573ffffffffffffffffffffffffffffffffffffffff16906020019092919050505061087b565b005b6102bc6004803603606081101561026657600080fd5b81019080803573ffffffffffffffffffffffffffffffffffffffff169060200190929190803573ffffffffffffffffffffffffffffffffffffffff16906020019092919080359060200190929190505050610965565b604051808215151515815260200191505060405180910390f35b6102de610c68565b604051808273ffffffffffffffffffffffffffffffffffffffff1673ffffffffffffffffffffffffffffffffffffffff16815260200191505060405180910390f35b6103e36004803603604081101561033657600080fd5b81019080803590602001909291908035906020019064010000000081111561035d57600080fd5b82018360208201111561036f57600080fd5b8035906020019184600183028401116401000000008311171561039157600080fd5b91908080601f016020809104026020016040519081016040528093929190818152602001838380828437600081840152601f19601f820116905080830192505050505050509192919290505050610c8e565b604051808215151515815260200191505060405180910390f35b610405610ea9565b6040518080602001828103825283818151815260200191508051906020019080838360005b8381101561044557808201518184015260208101905061042a565b50505050905090810190601f1680156104725780820380516001836020036101000a031916815260200191505b509250505060405180910390f35b6104c26004803603602081101561049657600080fd5b81019080803573ffffffffffffffffffffffffffffffffffffffff169060200190929190505050610f47565b6040518082815260200191505060405180910390f35b6104e0610f5f565b604051808273ffffffffffffffffffffffffffffffffffffffff1673ffffffffffffffffffffffffffffffffffffffff16815260200191505060405180910390f35b61052a610f85565b6040518080602001828103825283818151815260200191508051906020019080838360005b8381101561056a57808201518184015260208101905061054f565b50505050905090810190601f1680156105975780820380516001836020036101000a031916815260200191505b509250505060405180910390f35b6105f1600480360360408110156105bb57600080fd5b81019080803573ffffffffffffffffffffffffffffffffffffffff16906020019092919080359060200190929190505050611023565b604051808215151515815260200191505060405180910390f35b6106136111c6565b604051808215151515815260200191505060405180910390f35b61063561138d565b6040518082815260200191505060405180910390f35b610653611393565b604051808215151515815260200191505060405180910390f35b6106cf6004803603604081101561068357600080fd5b81019080803573ffffffffffffffffffffffffffffffffffffffff169060200190929190803573ffffffffffffffffffffffffffffffffffffffff169060200190929190505050611454565b6040518082815260200191505060405180910390f35b60008054600181600116156101000203166002900480601f01602080910402602001604051908101604052809291908181526020018280546001816001161561010002031660029004801561077b5780601f106107505761010080835404028352916020019161077b565b820191906000526020600020905b81548152906001019060200180831161075e57829003601f168201915b505050505081565b600081600860003373ffffffffffffffffffffffffffffffffffffffff1673ffffffffffffffffffffffffffffffffffffffff16815260200190815260200160002060008573ffffffffffffffffffffffffffffffffffffffff1673ffffffffffffffffffffffffffffffffffffffff168152602001908152602001600020819055508273ffffffffffffffffffffffffffffffffffffffff163373ffffffffffffffffffffffffffffffffffffffff167f8c5be1e5ebec7d5bd14f71427d1e84f3dd0314c0f7b2291e5b200ac8c7c3b925846040518082815260200191505060405180910390a36001905092915050565b60035481565b600560009054906101000a900473ffffffffffffffffffffffffffffffffffffffff1673ffffffffffffffffffffffffffffffffffffffff163373ffffffffffffffffffffffffffffffffffffffff1614610921576040517f08c379a000000000000000000000000000000000000000000000000000000000815260040180806020018281038252602b8152602001806114af602b913960400191505060405180910390fd5b80600460006101000a81548173ffffffffffffffffffffffffffffffffffffffff021916908373ffffffffffffffffffffffffffffffffffffffff16021790555050565b600081600760008673ffffffffffffffffffffffffffffffffffffffff1673ffffffffffffffffffffffffffffffffffffffff1681526020019081526020016000205410156109ff576040517f08c379a000000000000000000000000000000000000000000000000000000000815260040180806020018281038252603b815260200180611528603b913960400191505060405180910390fd5b81600860008673ffffffffffffffffffffffffffffffffffffffff1673ffffffffffffffffffffffffffffffffffffffff16815260200190815260200160002060003373ffffffffffffffffffffffffffffffffffffffff1673ffffffffffffffffffffffffffffffffffffffff168152602001908152602001600020541015610ad4576040517f08c379a000000000000000000000000000000000000000000000000000000000815260040180806020018281038252603581526020018061147a6035913960400191505060405180910390fd5b81600760008673ffffffffffffffffffffffffffffffffffffffff1673ffffffffffffffffffffffffffffffffffffffff1681526020019081526020016000206000828254039250508190555081600760008573ffffffffffffffffffffffffffffffffffffffff1673ffffffffffffffffffffffffffffffffffffffff1681526020019081526020016000206000828254019250508190555081600860008673ffffffffffffffffffffffffffffffffffffffff1673ffffffffffffffffffffffffffffffffffffffff16815260200190815260200160002060003373ffffffffffffffffffffffffffffffffffffffff1673ffffffffffffffffffffffffffffffffffffffff168152602001908152602001600020600082825403925050819055508273ffffffffffffffffffffffffffffffffffffffff168473ffffffffffffffffffffffffffffffffffffffff167fddf252ad1be2c89b69c2b068fc378daa952ba7f163c4a11628f55a4df523b3ef846040518082815260200191505060405180910390a3600190509392505050565b600460009054906101000a900473ffffffffffffffffffffffffffffffffffffffff1681565b600082600760003373ffffffffffffffffffffffffffffffffffffffff1673ffffffffffffffffffffffffffffffffffffffff168152602001908152602001600020541015610d28576040517f08c379a000000000000000000000000000000000000000000000000000000000815260040180806020018281038252603b815260200180611528603b913960400191505060405180910390fd5b82600760003373ffffffffffffffffffffffffffffffffffffffff1673ffffffffffffffffffffffffffffffffffffffff168152602001908152602001600020600082825403925050819055508260076000600560009054906101000a900473ffffffffffffffffffffffffffffffffffffffff1673ffffffffffffffffffffffffffffffffffffffff1673ffffffffffffffffffffffffffffffffffffffff168152602001908152602001600020600082825401925050819055503373ffffffffffffffffffffffffffffffffffffffff167f193e8520a7df891cd3389f46910e418de95b781496b8ce08605e35aad0617b9784846040518083815260200180602001828103825283818151815260200191508051906020019080838360005b83811015610e64578082015181840152602081019050610e49565b50505050905090810190601f168015610e915780820380516001836020036101000a031916815260200191505b50935050505060405180910390a26001905092915050565b60028054600181600116156101000203166002900480601f016020809104026020016040519081016040528092919081815260200182805460018160011615610100020316600290048015610f3f5780601f10610f1457610100808354040283529160200191610f3f565b820191906000526020600020905b815481529060010190602001808311610f2257829003601f168201915b505050505081565b60076020528060005260406000206000915090505481565b600560009054906101000a900473ffffffffffffffffffffffffffffffffffffffff1681565b60018054600181600116156101000203166002900480601f01602080910402602001604051908101604052809291908181526020018280546001816001161561010002031660029004801561101b5780601f10610ff05761010080835404028352916020019161101b565b820191906000526020600020905b815481529060010190602001808311610ffe57829003601f168201915b505050505081565b600081600760003373ffffffffffffffffffffffffffffffffffffffff1673ffffffffffffffffffffffffffffffffffffffff1681526020019081526020016000205410156110bd576040517f08c379a000000000000000000000000000000000000000000000000000000000815260040180806020018281038252603b815260200180611528603b913960400191505060405180910390fd5b81600760003373ffffffffffffffffffffffffffffffffffffffff1673ffffffffffffffffffffffffffffffffffffffff1681526020019081526020016000206000828254039250508190555081600760008573ffffffffffffffffffffffffffffffffffffffff1673ffffffffffffffffffffffffffffffffffffffff168152602001908152602001600020600082825401925050819055508273ffffffffffffffffffffffffffffffffffffffff163373ffffffffffffffffffffffffffffffffffffffff167fddf252ad1be2c89b69c2b068fc378daa952ba7f163c4a11628f55a4df523b3ef846040518082815260200191505060405180910390a36001905092915050565b600060096000600654815260200190815260200160002060003373ffffffffffffffffffffffffffffffffffffffff1673ffffffffffffffffffffffffffffffffffffffff16815260200190815260200160002060009054906101000a900460ff161561127e576040517f08c379a00000000000000000000000000000000000000000000000000000000081526004018080602001828103825260248152602001806115046024913960400191505060405180910390fd5b60c8600760003373ffffffffffffffffffffffffffffffffffffffff1673ffffffffffffffffffffffffffffffffffffffff16815260200190815260200160002060008282540192505081905550600160096000600654815260200190815260200160002060003373ffffffffffffffffffffffffffffffffffffffff1673ffffffffffffffffffffffffffffffffffffffff16815260200190815260200160002060006101000a81548160ff0219169083151502179055503373ffffffffffffffffffffffffffffffffffffffff167f0f6798a560793a54c3bcfe86a93cde1e73087d944c0ea20544137d412139688560c86040518082815260200191505060405180910390a26001905090565b60065481565b6000600560009054906101000a900473ffffffffffffffffffffffffffffffffffffffff1673ffffffffffffffffffffffffffffffffffffffff163373ffffffffffffffffffffffffffffffffffffffff161461143b576040517f08c379a000000000000000000000000000000000000000000000000000000000815260040180806020018281038252602a8152602001806114da602a913960400191505060405180910390fd5b6006600081548092919060010191905055506001905090565b600860205281600052604060002060205280600052604060002060009150915050548156fe546f6b656e73207472616e73666572726564206d757374206265206c657373206f7220657175616c20746f20616c6c6f77616e636552656c61792063616e206f6e6c79206265207570646174656420627920636f6e7472616374206f776e657252657365742063616e206f6e6c792062652063616c6c656420627920636f6e7472616374206f776e6572596f752063616e206f6e6c792067657420746f6b656e73206f6e63652070657220646179546f6b656e73207472616e73666572726564206d757374206265206c657373206f7220657175616c20746f206163636f756e742062616c616e6365a265627a7a72315820c6f5a2a2eb28b8d50fcdc4e1f6cb381ca6cbb812659067ec1051e75641e8115a64736f6c63430005100032",
  "source": "pragma solidity ^0.5.16;\r\ncontract ControlToken{\r\n  string public name = \"ControlToken\";\r\n  string public symbol = \"CONT\";\r\n  string public standard = \"Control Token v1.0\";\r\n  uint256 public totalSupply;\r\n  // Latest store (to buy things with the token in)\r\n  address public latest;\r\n  // Owner address of the contract\r\n  address public owner;\r\n  // Mapping we're on today to track who already got tokens for the day\r\n  uint256 public today;\r\n\r\n  event Transfer(\r\n    address indexed _from,\r\n    address indexed _to,\r\n    uint256 _value\r\n    );\r\n\r\n  event Approval(\r\n    address indexed _owner,\r\n    address indexed _spender,\r\n    uint256 _value\r\n    );\r\n\r\n  // Event thrown when a user pays for an unlock on their desktop\r\n  event Unlock(\r\n    address indexed _from,\r\n    uint256 _value,\r\n    string _otp\r\n    );\r\n\r\n  // Event thrown when new tokens are minted (each day)\r\n  event Mint(\r\n    address indexed _receiver,\r\n    uint256 _value\r\n    );\r\n\r\n\r\n\r\n  mapping(address => uint256) public balanceOf;\r\n  mapping(address => mapping(address => uint256)) public allowance;\r\n  // Who has received their tokens for the day\r\n  mapping(uint256 => mapping(address => bool)) private received;\r\n\r\n  constructor() public {\r\n    latest = 0x0000000000000000000000000000000000000000;\r\n    owner = msg.sender;\r\n    // No limit of supply\r\n    totalSupply = 0;\r\n    today = 0;\r\n  }\r\n\r\n  /* Boilerplate ERC20 (transfer, approve, transferFrom) */\r\n\r\n  function transfer(address _to, uint256 _value) public returns (bool success){\r\n    require(balanceOf[msg.sender] >= _value,\r\n      \"Tokens transferred must be less or equal to account balance\");\r\n    balanceOf[msg.sender] -= _value;\r\n    balanceOf[_to] += _value;\r\n    emit Transfer(msg.sender, _to, _value);\r\n    return true;\r\n  }\r\n\r\n  function approve(address _spender, uint256 _value) public returns (bool success){\r\n    allowance[msg.sender][_spender] = _value;\r\n    emit Approval(msg.sender, _spender, _value);\r\n    return true;\r\n  }\r\n\r\n  function transferFrom(address _from, address _to, uint256 _value)\r\n  public returns (bool success){\r\n    require(balanceOf[_from] >= _value,\r\n       \"Tokens transferred must be less or equal to account balance\");\r\n    require(allowance[_from][msg.sender] >= _value,\r\n       \"Tokens transferred must be less or equal to allowance\");\r\n\r\n    balanceOf[_from] -= _value;\r\n    balanceOf[_to] += _value;\r\n\r\n    allowance[_from][msg.sender] -= _value;\r\n\r\n    emit Transfer(_from, _to, _value);\r\n\r\n    return true;\r\n\r\n  }\r\n\r\n    // Update the address of store\r\n    function update (address _newVersion) public{\r\n      require(msg.sender == owner, \"Relay can only be updated by contract owner\");\r\n      latest = _newVersion;\r\n    }\r\n\r\n    // Buy hours off the smart contract\r\n    function buyHours(uint256 _value, string memory _otp) public returns (bool success){\r\n      require(balanceOf[msg.sender] >= _value,\r\n        \"Tokens transferred must be less or equal to account balance\");\r\n\r\n      // Owner gets tokens to be burned later\r\n      balanceOf[msg.sender] -= _value;\r\n      balanceOf[owner] += _value;\r\n\r\n      emit Unlock(msg.sender, _value, _otp);\r\n      return true;\r\n    }\r\n\r\n    // Get today's tokens, 200 tokens per day per user\r\n    function getTokens() public returns (bool success){\r\n      require(!received[today][msg.sender],\r\n         \"You can only get tokens once per day\");\r\n      balanceOf[msg.sender] += 200;\r\n      received[today][msg.sender] = true;\r\n      emit Mint(msg.sender,200);\r\n      return true;\r\n    }\r\n\r\n    // Reset who got tokens already, to be called once a day\r\n    function reset() public returns (bool success){\r\n      require(msg.sender == owner, \"Reset can only be called by contract owner\");\r\n      today++;\r\n      return true;\r\n    }\r\n\r\n}\r\n",
  "sourcePath": "/mnt/data/Desktop/ControlToken/contracts/ControlToken.sol",
  "compiler": {
    "name": "solc",
    "version": "0.5.16+commit.9c3226ce.Emscripten.clang"
  },
  "schemaVersion": "3.0.23",
  "updatedAt": "2020-04-19T16:05:52.658Z",
  "devdoc": {
    "methods": {}
  },
  "userdoc": {
    "methods": {}
  }
}